:020000040800F2
:10000000A864002045010008F52700087D1E0008AF
:10001000F1270008370B0008E14C00080000000041
:100020000000000000000000000000003D4000084B
:100030009D0E000800000000A32C00086147000886
:100040005F0100085F0100085F0100085F01000810
:100050005F0100085F010008B91600085F01000891
:100060005F010008E11600085F0100085F01000859
:100070005F0100085F0100085F0100085F010008E0
:100080005F0100085F0100085F0100085F010008D0
:100090005F0100085F0100085F0100085F010008C0
:1000A0005F0100085F0100085F0100085F010008B0
:1000B0005F0100085F0100085F0100085F010008A0
:1000C0005F0100085F0100085F0100085F01000890
:1000D0005F0100085F0100085F0100080149000896
:1000E0005F0100085F0100085F0100085F01000870
:1000F0005F0100085F0100085F0100085F01000860
:100100005F010008853400085F0100085F010008F6
:100110005F0100085F0100085F0100085F0100083F
:100120005F0100085F0100085F0100085F0100082F
:10013000DFF80CD000F0B0FB00480047C1770008A2
:10014000A86400200648804706480047FEE7FEE70F
:10015000FEE7FEE7FEE7FEE7FEE7FEE7FEE7FEE777
:10016000794800083101000840EA01039B0703D0E9
:1001700009E008C9121F08C0042AFAD203E011F8E6
:10018000013B00F8013B521EF9D27047D2B201E0A8
:1001900000F8012B491EFBD270470022F6E710B58C
:1001A00013460A4604461946FFF7F0FF204610BDE5
:1001B00030B505462A460B4612F8010B13F8014BE1
:1001C00008B1A042F8D01CB1002802D06D1CF1E7A4
:1001D000284630BD421C10F8011B0029FBD1801AB3
:1001E0007047F0B480EA0102D40F4200B2EB410F35
:1001F00002D20246084611464A0042D0C30DDDB283
:10020000C1F3C752AD1A202D35DAC1F3160141F4FE
:10021000000204B15242C5F1200602FA06F12A4159
:100220001044B3EBD05F23D0C4B1012DA0EBC35079
:1002300009DCF0BC4FF0004202EAC352DBB200F529
:10024000000000F06EBA400000F1807000EBC35077
:10025000A0F1807040EAD170490009E0490841EA04
:10026000C071A0EBC35000F50000400800EBC35084
:10027000F0BC00F04DBA6142012202EB4101001BCB
:10028000F6E7F0BC704781F00041AAE780F000403B
:10029000A7E72DE9FE4F804681EA0300C00F0C4618
:1002A000009021F0004123F00045B8EB0200A94185
:1002B00005D24046214690461C460B46024623F096
:1002C0000040104347D0270DC7F30A00C3F30A517B
:1002D0000290401A019040286BDAC3F3130040F4F7
:1002E000801B0098924620B10023D2EB030A63EBF7
:1002F0000B0B01985946C0F14002504600F0E7F957
:1003000006460D4650465946019A00F0EFF910EBAB
:1003100008006141002487EA115284EAE7731A4316
:1003200040D0009A62B3019A012A4FEA075215DCC5
:10033000001B61EB02014FF0004202EA0752CDE9D7
:100340000042001C41F5801132462B4600F026FA8F
:1003500003B0BDE8F08F40462146F9E7001B61EB92
:100360000201001C41F5801300185B412018A2F522
:10037000001747EB030140EAD570B6196D4111E053
:100380006D084FEA360645EAC0754FEA0752001B72
:1003900061EB0201001C41F5801149084FEA300071
:1003A0000019514132462B4603B0BDE8F04F00F032
:1003B000E6B90098012240000023D0EB020263EB73
:1003C000E073009821464FEAE074B8EB000061EB5F
:1003D0000401E9E783F000435BE781F0004158E75F
:1003E0002DE9FE4F81EA030404F0004421F00041AE
:1003F00000944FF0000B23F0004350EA01045ED05C
:1004000052EA03045BD0C3F30A54C1F30A552C44E7
:10041000A4F2F3340194A0FB0254C1F3130141F49C
:100420008011C3F3130343F4801301FB024400FB68
:10043000034E840A970A44EA815447EA8357A4FB8F
:10044000076802958D0A05FB07854FEA932C04FB8C
:100450000C542705029D4FEA065847EA1637B5EBBC
:1004600008056EEB070C870E920E47EA811742EAE9
:100470008312A7FB0201B6EB0B0164EB00042B0D0A
:1004800043EA0C335E1844EB1C50DA465146E7FB56
:100490000201C5F313044FEA0B3343EA14534FEA46
:1004A0000432019C43EA0603A4F10C040294009C6C
:1004B000CDE900B400F072F903B0BDE8F08F002080
:1004C0000146F9E72DE9F04D81EA030404F0004B01
:1004D00021F0004514464FF0000A23F0004150EA95
:1004E000050220D054EA01021DD0C5F30A57024686
:1004F000C5F31303C1F31300C1F30A5640F480158A
:1005000043F48013A7EB0608101BD64608F2FD380B
:1005100073EB050002D308F1010801E092185B417A
:10052000B8F1000F03DA00200146BDE8F08D00208D
:100530004FF48011064684460EE0171B73EB050747
:1005400005D3121B63EB050306434CEA010C490873
:100550004FEA300092185B4150EA0107EDD152EAB0
:10056000030012D082EA040083EA0501084305D0A3
:10057000101BAB4106D20122002306E000224FF0FF
:10058000004302E06FF0010253101AEB06004CEB3F
:10059000085110EB0A0041EB0B01BDE8F04D00F0F3
:1005A000EEB896230022114600F0BBB80EB5C10F7D
:1005B00080EAE0700844CA07002140F233438DE826
:1005C0000E000A460B4600F0E9F803B000BD00F04B
:1005D000004230F000400AD0C10D01F56071C0F357
:1005E000160042EA0151C20840071143704700203B
:1005F0000146704701F0004330B421F0004150EA59
:10060000010206D00A0DA2F56072C1F31301002A9F
:1006100002DC30BC00207047440F44EAC104C10032
:10062000E01830BC00EBC25000F072B8002801DBCB
:10063000C0F10040002901DBC1F100418142704757
:1006400030B50B46014600202022012409E021FAA2
:1006500002F59D4205D303FA02F5491B04FA02F59F
:100660002844151EA2F10102F1DC30BD2DE9F05F36
:100670000546002092469B46884606468146402411
:100680001BE0284641464746224600F017F95346EC
:100690005A46C01A914110D311461846224600F01E
:1006A00016F82D1A67EB01084F462246012000215B
:1006B00000F00DF817EB00094E41201EA4F10104D3
:1006C000DFDC484631462A464346BDE8F09F202AF3
:1006D00004DB203A00FA02F1002070479140C2F199
:1006E000200320FA03F3194390407047202A06DBC9
:1006F000CB17203A41FA02F043EAE07306E041FAF0
:1007000002F3D040C2F120029140084319467047DD
:100710000029A8BF7047401C490008BF20F0010015
:10072000704710B4B0FA80FC00FA0CF050EA0104F3
:1007300004BF10BC704749B1CCF1200421FA04F485
:1007400011FA0CF118BF012121430843A3EB0C015E
:10075000CB1D4FEA00614FEA102042BF002010BCC1
:10076000704700EBC35010440029A4BF10BC704771
:10077000401C490008BF20F0010010BC704710B5B4
:10078000141E73F1000408DA401C41F100019218B4
:100790005B411A4301D120F0010010BD2DE9F04D5D
:1007A00092469B4611B1B1FA81F202E0B0FA80F2B2
:1007B00020329046FFF78BFF04460F4640EA0A00BE
:1007C00041EA0B0153465A46084313D0114653EAF7
:1007D000010019D0C8F14002504600F06FF80546FC
:1007E0000E46504659464246FFF771FF084305D072
:1007F000012004E020463946BDE8F08D0020054385
:1008000046EAE0762C4337430A986305E40AA0EBF6
:1008100008000022FD0A44EA47540A3002D50020AD
:100820000146E9E7010510196941DDE908450019AC
:100830006941BDE8F04DA2E7C1F30A52C1F31301CB
:1008400040F2FF3341F480119A4202DA002001465F
:10085000704740F233439A42A2F2334202DC5242E2
:1008600000F02CB8FFF733BF30B5041E71F100045F
:1008700004DB4FF00044404264EB0101141E73F1AD
:10088000000405DB1C464FF00043524263EB0403B7
:10089000994208BF904230BD064C074D06E0E06823
:1008A00040F0010394E8070098471034AC42F6D3B7
:1008B000FFF742FCE8CB000808CC0008202A04DB44
:1008C000203A21FA02F00021704721FA02F3D040C9
:1008D000C2F12002914008431946704770B58C1848
:1008E00010F8015B15F0070301D110F8013B2A1144
:1008F00006D110F8012B03E010F8016B01F8016B31
:100900005B1EF9D12B0705D40023521E0DD401F82C
:10091000013BFAE710F8013BCB1A921C03E013F8F5
:10092000015B01F8015B521EF9D5A142D8D300202A
:1009300070BD21B1826842F00102826003E08268EA
:1009400022F0010282607047014600208A6802F0AE
:1009500004020AB1012000E0002070470146C86C83
:1009600080B27047014600208A6802F008020AB18E
:10097000012000E00020704708B501214FF4047009
:1009800002F0CCF90121102002F0C8F90120ADF8E5
:10099000000000208DF803006946174801F0D6F9E1
:1009A000002016490860087148714FF46020886083
:1009B0000020C86001200874114800F023F80523C6
:1009C00001220A210E4800F045F801210C48FFF7EA
:1009D000B0FF0B4800F09AF800BF0948FFF7C2FFCC
:1009E0000028FAD1064800F0A1F800BF0448FFF73C
:1009F000ABFF0028FAD108BD0010014070010020B3
:100A00000024014030B502460020002350680F4CFE
:100A100020400D790C6844EA05242043506090681A
:100A20000B4C2040D1E902542C434D7944EA450453
:100A300020439060D06A20F470000C7C641EE4B205
:100A4000234340EA0350D06230BD0000FFFEF0FFB8
:100A5000FDF7F1FFF0B504460D4600200021092DF9
:100A600011DDE068A5F10A0606EB4607072606FA3F
:100A700007F18843A5F10A0606EB460603FA06F1DC
:100A80000843E0600CE0206905EB4507072606FAFD
:100A900007F1884305EB450603FA06F10843206198
:100AA000072A0FDA606B561E06EB86071F2606FA2A
:100AB00007F18843561E06EB860605FA06F1084341
:100AC000606322E00D2A0FDA206BD61F06EB860743
:100AD0001F2606FA07F18843D61F06EB860605FA9D
:100AE00006F10843206310E0E06AA2F10D0606EB70
:100AF00086071F2606FA07F18843A2F10D0606EBCA
:100B0000860605FA06F10843E062F0BD816841F00F
:100B100008018160704721B1826842F4A0028260BE
:100B200003E0826822F4A00282607047816841F08D
:100B300004018160704700BFFEE770B500254FF4E7
:100B4000803400E0641E24B1802002F07BFC002889
:100B5000F8D014B90325284670BD40F2FF5002F0CA
:100B600029FC2846F8E70000014600BF0748406B13
:100B700000F045000028F9D040F2FF50034A90638E
:100B80001046406908221040C0B270470080014002
:100B900070B500251048446B01E00F48446B04F029
:100BA00045000028F9D004F0040028B103250420F2
:100BB00002F000FC284670BD04F0010028B10125B8
:100BC000012002F0F7FB2846F5E740F2FF5002F063
:100BD000F1FB2846EFE700000080014070B50025DA
:100BE0000B48446B01E00A48446B04F045000028C0
:100BF000F9D004F0040028B10325042002F0DAFB48
:100C0000284670BD40F2FF5002F0D4FB2846F8E7BA
:100C1000008001402DE9F04106460F464FF00008E4
:100C20002248456B01E02148456B05F0450000284E
:100C3000F9D005F0040038B14FF00308042002F0A9
:100C4000B9FB4046BDE8F08105F0010030B14FF03E
:100C50000108012002F0AEFB4046F3E702F0ECFB96
:100C6000B04203D04FF010084046EBE740F2FF508F
:100C700002F0A0FB002002F0F9FB044604F46040FF
:100C800018B9200C38804046DCE704F4005008B165
:100C90001320D7E704F4804008B11020D2E704F411
:100CA000004008B10F20CDE74046CBE7008001406F
:100CB00070B500264FF480350F48446B02E06D1E7E
:100CC0000D48446B04F0450008B9002DF7D115B16B
:100CD00004F0040028B10326042002F06BFB304628
:100CE00070BD04F0400028B10026402002F062FBF5
:100CF0003046F5E73046F3E70080014010B5044682
:100D000006F0BEFC462006F091FC00BF06F0E0FCB9
:100D10000028FBD1204606F089FC00BF06F0D8FC75
:100D20000028FBD106F0C4FC4FF4FA7007F074FA07
:100D300010BD00002DE9F0411048007810490880EE
:100D40000E484078097800EB01200D4908800846DC
:100D50000088FFF726FC8046FFF739FC06464FF077
:100D60003332084BFFF7AEFB0446FFF743FC06495E
:100D7000086008460068BDE8F081000040010020DE
:100D8000420100203333F33F3C01002008B501212C
:100D9000402001F0C3FF4020ADF8000010208DF886
:100DA000030003208DF802006946044800F0CEFFDE
:100DB0004021024801F060F808BD00000018014021
:100DC00008B54020ADF8000048208DF803006946C2
:100DD000014800F0BBFF08BD0018014008B54020E5
:100DE000ADF8000010208DF8030003208DF80200FC
:100DF0006946024800F0AAFF08BD00000018014043
:100E000000F0805111B10349086001E002494860D7
:100E100070470000040402400000024021B1026853
:100E200042F00102026004E002684FF6FE731A40CD
:100E30000260704701460020002201F0805313B188
:100E4000054B1A6801E0054B1A6802EA01030BB171
:100E5000012000E000207047000402400000024032
:100E600010B50022026847F6F0739A430C6A8B684B
:100E700023430C6923434C6923438C692343CC6986
:100E800023434C6A23438C6A23431A430260CB6892
:100E900043600B6883604B68C36010BD70470000FF
:100EA00010B54FF4805008490860084807F0B4F9BD
:100EB0004FF480500449091D086044F6206007F093
:100EC000ABF900F0F7F910BD10080140400D030028
:100ED00010B500244FF400710B4800F0CDFF0B4813
:100EE00007F09AF90CE04FF4FA73002208A109A068
:100EF00000F012F800B110BD00F048FA601CC4B256
:100F00000A2CF0DB00BFF6E7000C0140A0860100D0
:100F10004F4B0000415400002DE9F04106460C46BD
:100F200015461F462648B0F800046FF30E0024490A
:100F3000A1F80004324623A1244803F04EFE1CB958
:100F400015B90120BDE8F081642107FB01F007F02D
:100F500063F900201A49B1F80014C1F30E01184AD0
:100F6000505411461AA003F0FBFEB4B1ADB12146B6
:100F70001348FFF71DF908B1012000E0002040B937
:100F800029460F48FFF714F908B1012000E00020BE
:100F900008B10120D6E70020D4E744B12146084833
:100FA000FFF706F908B10120CCE70020CAE729467F
:100FB0000348FFF7FDF808B10120C3E70020C1E7AF
:100FC000C44A002025730D0A0000000000480040BC
:100FD0002573000010B586B004460CB1012000E076
:100FE0000020024606A101A803F0CAFE4FF4FA73DE
:100FF000002207A101A8FFF78FFF06B010BD000077
:1010000041542B4349504D55583D25640000000084
:101010004F4B000010B5064807F0FEF805A1064842
:1010200003F0DBFD4CF2503007F0F6F810BD000085
:10103000A08601002B2B2B000048004008B50121A1
:10104000082001F06BFE4FF48070ADF80000102016
:101050008DF8030003208DF802006946074800F070
:1010600075FE0121082001F059FE4FF40070ADF823
:1010700000006946014800F069FE08BD000C01400F
:1010800010B54FF4FA73002211A112A0FFF744FF2C
:10109000D8B114A11648FFF78BF808B1022010BD93
:1010A00014A11348FFF784F808B10320F7E714A14F
:1010B0000F48FFF77DF808B10420F0E713A10C48B2
:1010C000FFF776F808B10520E9E70020E7E7000020
:1010D0004F4B000041542B434950535441545553F6
:1010E000000000005354415455533A320D0A000099
:1010F000C44A00205354415455533A330D0A00005A
:101100005354415455533A340D0A0000535441543A
:1011100055533A350D0A000010B5FFF78FFF00F068
:101120003FFA4FF40071044800F0A6FE4FF48071BE
:10113000014800F09FFE10BD000C014030B59FB08B
:1011400004460D462B46224606A101A803F018FED0
:1011500041F28833002208A101A8FFF7DDFE1FB08D
:1011600030BD000041542B43574A41503D22257366
:10117000222C2225732200004F4B0000F0B5B9B09D
:1011800006460F4614461D46642120A8FFF705F8C1
:1011900016B1012E10D107E03B4614A214A120A8DD
:1011A000009403F0EDFD08E03B4615A210A120A835
:1011B000009403F0E5FD00E000BF00BF052D06DA56
:1011C00020AB2A460FA102A803F0DAFD04E020AA12
:1011D00011A102A803F0D4FD4FF47A6312A216A164
:1011E00002A8FFF799FE39B0F0BD0000544350004B
:1011F000222573222C222573222C25730000000047
:101200005544500041542B43495053544152543D8E
:1012100025642C257300000041542B43495053543E
:101220004152543D25730000414C524541592043E1
:101230004F4E4E45435400004F4B000010B504463E
:1012400024B1012C0AD0022C18D10FE040F6C413AF
:101250000BA20EA10EA0FFF75FFE10BD40F6C41357
:1012600007A20AA10DA0FFF757FEF6E740F6C41348
:1012700003A206A10CA0FFF74FFEEEE70020ECE76B
:101280006E6F206368616E67650000004F4B000061
:1012900041542B43574D4F44453D310041542B435E
:1012A000574D4F44453D320041542B43574D4F4419
:1012B000453D330010B5FFF7ADFE14A003F050FD1F
:1012C00000BFFFF7DDFE0446002CFAD0042C01D04D
:1012D000052C15D113A003F043FD00BF19A11CA0DC
:1012E000FFF72CFF0028F9D000BF05231AA21CA18C
:1012F0000020FFF743FF0028F7D01DA003F030FDCA
:1013000000BF00F0AFF90028FBD010BD5265633A72
:1013100067657420636F6E6E6563742073746174A7
:1013200075730A000D0AD5FDD4DAD6D8C1ACC8C889
:10133000B5E3BACDB7FECEF1C6F7202E2E2E2E2E57
:101340002E0D0A006173646667686A6B6C000000AA
:1013500074657374000000003639363900000000EF
:101360003139322E3136382E34332E3131330000BC
:101370000D0AD6D8C1ACC8C8B5E3BACDB7FECEF118
:10138000C6F7B3C9B9A60D0A0000000010B54FF4A6
:101390000071064800F06EFD4CF2503006F03CFF44
:1013A0004FF40071014800F067FD10BD000C0140D2
:1013B0002DE9F04186B007460C4615461E464FF013
:1013C00000083FB1224614A1144803F006FC4FF078
:1013D00001081CE0052E06DAAB1C324610A101A85C
:1013E00003F0CEFC04E0AA1C12A101A803F0C8FC83
:1013F0004FF47A73002213A101A8FFF78DFD4FF47B
:101400007A73002210A12046FFF786FD80464046F1
:1014100006B0BDE8F08100002573000000480040E0
:1014200041542B43495053454E443D25642C25647B
:101430000000000041542B43495053454E443D2584
:10144000640000003E20000053454E44204F4B00F6
:1014500010B51DA003F084FC4FF48071214800F00A
:101460000BFD21A003F07CFCFFF732FD23A003F06D
:1014700077FC0020FFF7E2FE0446214623A003F09C
:101480006FFC00BF27A12AA0FFF758FE0028F9D063
:1014900029A003F065FC0020FFF79CFD00BF052399
:1014A0002CA22EA10020FFF769FE0028F7D02FA064
:1014B00003F056FC00BF00F0D5F80028FBD032A0A6
:1014C00003F04EFC012010BD0D0AD5FDD4DAC5E4B1
:1014D000D6C32045535038323636202E2E2E2E2E8F
:1014E0002E0D0A00000C014073657420626974209F
:1014F000737563636573730D0A00000041542074B3
:1015000065737420706173730D0A00004E6574205A
:101510006D6F64652063686F6F73652025640D0AC5
:10152000000000006173646667686A6B6C0000000D
:1015300074657374000000004E657420636F6E6EF6
:10154000656374696F6E20737563636573730D0AE9
:101550000000000036393639000000003139322EE3
:101560003136382E34332E313133000053657276E4
:10157000657220636F6E6E656374696F6E2073753C
:1015800063636573730D0A000D0AC5E4D6C3204575
:1015900053503832363620CDEAB1CF0D0A00000064
:1015A00000B585B00121880401F0A8FB01210820C5
:1015B00001F0B4FB4FF48060ADF8100018208DF8F6
:1015C000130003208DF8120004A91A4800F0BEFB96
:1015D0004FF40060ADF8100004208DF8130004A94A
:1015E000144800F0B3FB4FF4E13000900020ADF858
:1015F0000400ADF80600ADF80800ADF80C000C20B2
:10160000ADF80A0069460C4803F072FA012240F274
:101610002551094803F047FA012240F224410648C7
:1016200003F041FA00F00AF80121034803F0B8F989
:1016300005B000BD000C01400048004008B54FF463
:10164000A06001F025F927208DF8000000208DF81A
:1016500001008DF8020001208DF80300684601F0BA
:10166000DFF808BD10B54FF4FA73002209A10AA0F3
:10167000FFF752FC08B9002010BD44F6206006F0C8
:10168000CBFD4FF4FA7308A202A108A0FFF744FCB7
:10169000F2E700004F4B000041542B4349504D4F9F
:1016A00044453D31000000003E00000041542B4302
:1016B000495053454E44000010B5012000F072F827
:1016C00050B10648007808B9012000E00020034925
:1016D0000870012000F058F810BD00003001002013
:1016E00010B5082000F05EF800B31148007878B912
:1016F00010201049486108200F49086001200C495A
:10170000087008200C49086010200A4908610AE0A6
:1017100007480078012806D108200749091D0860FC
:10172000022003490870082000F02EF810BD0000C8
:101730000701002000100140101401400EB50121E6
:10174000042000F0E3FA0120019000208DF8080049
:1017500008208DF8090001208DF80A0001A800F08A
:1017600035F84FF4C06001F093F806208DF80000C2
:1017700000208DF801008DF8020001208DF8030093
:10178000684601F04DF80EBD014908607047000041
:1017900014040140024909680143014A116070477D
:1017A00010040140014600200022074B1B6803EA99
:1017B0000102054B14331B680B4013B10AB1012021
:1017C00000E0002070470000000401400021234990
:1017D0008279002A3AD00A46126803689A430B4677
:1017E0001A600A1D126803689A430B1D1A60027979
:1017F00011440A6803681A430A60184A08321268DA
:1018000003689A43154B08331A601A1D126803685F
:101810009A43124B0C331A604279102A0ED11A1FC8
:10182000126803681A430D4B08331A601A1D1268B8
:1018300003681A43094B0C331A600DE007494279DB
:1018400011440A6803681A430A6005E002791144EA
:101850000A6803689A430A60704700000004014068
:1018600008B501213C2001F059FA10208DF8030041
:1018700003208DF802000820ADF8000069462148D9
:1018800000F064FA1020ADF8000069461E4800F030
:101890005DFA0420ADF8000069461A4800F056FAD7
:1018A0002020ADF800006946174800F04FFA0820E4
:1018B000ADF800006946154800F048FA4FF4704052
:1018C000ADF8000004208DF8030003208DF802001D
:1018D00069460F4800F03AFAF020ADF80000042005
:1018E0008DF8030003208DF802006946054800F0DA
:1018F0002DFA0820034914310860044910310860AA
:1019000008BD000000080140001001400014014023
:10191000000C014051B18200A2F1C042126842F0B5
:1019200001038200A2F1C042136009E08200A2F12B
:10193000C0421268034B1A408300A3F1C0431A60EF
:1019400070470000FEFF0F00D0E901121143C2688A
:101950001143026911434269114382691143C2690B
:101960001143026A1143426A1143826A1143C26AF7
:101970001143026B114302689200A2F1C042116050
:10198000816808290BD101688900A1F1C04109686B
:1019900041F0400201688900A1F1C0410A60416B39
:1019A0000968426B526841EA0211426B926841EA4F
:1019B0000221426B928941EA0241426B128A41EA5A
:1019C0000251426B127D41EA0261426B92691143FE
:1019D0000268521C9200A2F1C0421160C16AB1F5C6
:1019E000804F1BD1816B0968826B526841EA0211FA
:1019F000826B926841EA0221826B128A41EA0251AB
:101A0000826B127D41EA0261826B92691143026826
:101A10009200A2F1C042C2F8041107E06FF07042D8
:101A200001688900A1F1C041C1F80421704700009C
:101A300010B502F089FE44F2506006F0EDFB01F0B3
:101A4000E7F9FFF777F9024806F0E6FB10BD000062
:101A5000A086010010B5044801F028FA10B903A0CF
:101A600003F07EF910BD00002C0000205265616477
:101A7000204448543131204552524F52210D0A0022
:101A80002DE9F04786B0002004900590824600BF03
:101A90000FE001211C48FFF73EF842F2107006F0FB
:101AA000BBFB1948FEF75AFF04A921F81A000AF1F6
:101AB000010ABAF1030FECD3BDF81010BDF81220E3
:101AC0001144BDF814208818FEF770FD00220F4B5A
:101AD000CDE90001FEF7F6FC064600220C4BFEF7AE
:101AE000F1FC044600220B4BFEF777FC80460022F7
:101AF000094BFEF775FCCDE90201FEF77BFD0749B6
:101B0000086006B0BDE8F0870024014000000840EE
:101B100000FEAF400000F03F0000594034000020BC
:101B20002DE9FC4107460D460026002400200090C8
:101B3000019008205D4908601020486040208860BE
:101B40000020C8604FF480600861084601F0CCFCBA
:101B50001020FFF709F8044614B12046BDE8FC81C7
:101B600053480088000451490860372048604020ED
:101B700088600020C8604FF480600861084601F06A
:101B8000B3FC3720FEF7F0FF04460CB12046E5E732
:101B90004FF0FF30474908600820486030208860D7
:101BA0000220C8600020086101204861084601F059
:101BB00019FC00203D4908603320486040208860BF
:101BC0000020C8604FF480600861084601F08CFC7A
:101BD0003320FEF7C9FF04460CB12046BEE70CE0F7
:101BE0004FF4001001F02EFC38B101F077FC4DF8F5
:101BF0002600761C012E00D906E02F48406B40F2EB
:101C00002A6108400028EBD000BF082001F01AFC30
:101C100028B1082001F0CEFB042420469EE70220D4
:101C200001F010FC28B1022001F0C4FB0224204680
:101C300094E7202001F006FC28B1202001F0BAFB37
:101C4000062420468AE74FF4007001F0FBFB30B118
:101C50004FF4007001F0AEFB072420467EE740F20F
:101C6000FF5001F0A7FB00980006009901F47F41A6
:101C700040EA0120009901F47F0140EA1120009917
:101C800040EA1160686001980006019901F47F4103
:101C900040EA0120019901F47F0140EA11200199F5
:101CA00040EA11602860204658E70000984A00206A
:101CB0004C010020AC4A00200080014008B5012101
:101CC000302001F02BF84FF4F850ADF8000003205D
:101CD0008DF8020018208DF803006946094800F0CD
:101CE00035F80420ADF800006946074800F02EF8EA
:101CF0000121880200F0F2FF0121022000F0EEFF36
:101D000008BD0000001001400014014030B5002261
:101D10008B071C0F0F2303FA04F20B4B8C1053F8A4
:101D200024309343084C8D1044F8253023468C1002
:101D300053F824308C07240F00FA04F42343024C98
:101D40008D1044F8253030BD080001402DE9F041E8
:101D5000024600250026002000230024002791F8D9
:101D600003C00CF00F0591F803C00CF0100CBCF18F
:101D7000000F03D091F802C04CEA050591F800C0AD
:101D8000BCF1000F31D0146800202BE04FF0010CA3
:101D90000CFA00F3B1F800C00CEA03069E4220D111
:101DA00083004FF00F0C0CFA03F7BC4305FA03FC59
:101DB0004CEA040491F803C0BCF1280F06D14FF09F
:101DC000010C0CFA00FCC2F814C00AE091F803C040
:101DD000BCF1480F05D14FF0010C0CFA00FCC2F821
:101DE00010C0401C0828D1D31460B1F800C0BCF169
:101DF000FF0F34DD546800202EE000F1080C4FF096
:101E0000010808FA0CF3B1F800C00CEA03069E4280
:101E100021D183004FF00F0C0CFA03F7BC4305FAF5
:101E200003FC4CEA040491F803C0BCF1280F05D16F
:101E300000F1080C08FA0CF8C2F8148091F803C0FD
:101E4000BCF1480F07D100F1080C4FF0010808FA67
:101E50000CF8C2F81080401C0828CED35460BDE8AE
:101E6000F0810246002093680B400BB1012000E096
:101E700000207047416170470161704700BFFEE775
:101E800010B504462CB14FF480510548FFF7F2FF1E
:101E900004E04FF480510248FFF7EEFF10BD000050
:101EA000001401402DE9F04106460F4614461D4638
:101EB0002B4622463946304600F01CFA04FB05F05A
:101EC0000249098800F0BDF8BDE8F0811601002044
:101ED00001B502E00098401E009000980028F9D15A
:101EE00008BD00002DE9F04F804689461646A6F150
:101EF00020001FFA80FA1E49096889881C4A126866
:101F0000D28801FB02F0C11700EB5171C1F3C70782
:101F10001748006800680AFB070B15480068C3886B
:101F20001348006882884946404600F0E3F92C20B7
:101F300000F064FB002416E0002510E01BF804000C
:101F400080212941084020B10A48008800F05AFB4E
:101F500003E00948008800F055FB681CC5B2082D55
:101F6000ECDB601CC4B2BC42E6DBBDE8F08F0000D5
:101F700010010020140100201601002070B5044655
:101F80000D46002624E03046134909688988084434
:101F900012490988884205DD00260F480068C0887C
:101FA000204484B220460C490968C98808440C4979
:101FB0000988884201DD002600242A78214630461F
:101FC000FFF790FF6D1C044800688088304486B29B
:101FD00028780028D7D170BD10010020080100200A
:101FE0000A01002000B597B00121080200F076FE3A
:101FF00001200190042003908006079000200290A9
:102000000490059006900890099008200A901020EE
:102010000B9000200C900E900F9010904FF4805079
:102020001190002012901390149001A81590169012
:1020300008A8FFF789FC01210020FFF76BFC17B00F
:1020400000BD10B502460B4600242C2000F0D6FA45
:1020500000BF03E0184600F0D5FA641C9442F9D39F
:1020600010BD000008B50121602000F057FE0320DC
:102070008DF8020018208DF803004FF48040ADF871
:10208000000069465B48FFF761FE4FF40040ADF881
:10209000000069465748FFF759FE0120ADF80000DF
:1020A00069465448FFF752FE0220ADF80000694629
:1020B0005048FFF74BFE8020ADF8000069464E48BF
:1020C000FFF744FE4FF48070ADF8000069464A48BF
:1020D000FFF73CFE4FF40070ADF80000694646483B
:1020E000FFF734FE4FF48060ADF8000069464248C7
:1020F000FFF72CFE4FF40060ADF8000069463E4843
:10210000FFF724FE4FF48050ADF8000069463A48CE
:10211000FFF71CFE4FF40050ADF80000694636484A
:10212000FFF714FE4FF48040ADF8000069463248D6
:10213000FFF70CFE4FF40040ADF8000069462E4852
:10214000FFF704FE4FF48070ADF80000694629489F
:10215000FFF7FCFD4FF40070ADF80000694625481C
:10216000FFF7F4FD4FF48060ADF8000069462148A8
:10217000FFF7ECFD03208DF8020018208DF8030016
:102180001020ADF8000069461A48FFF7DFFD202057
:10219000ADF8000069461748FFF7D8FD8020ADF87C
:1021A000000069461348FFF7D1FD4FF40060ADF819
:1021B000000069460F48FFF7C9FD10208DF80300A5
:1021C00003208DF802000220ADF8000069460A489D
:1021D000FFF7BCFD10208DF8030003208DF80200EE
:1021E0004FF48050ADF8000069460248FFF7AEFD9D
:1021F00008BD0000001401400018014070B50446FD
:102200000D462946204600F0EFF900F0BDF90646DC
:10221000304670BD00B50246072A00DD00BD2848E3
:102220000270104602EBD0714910A2EB410139B99E
:10223000F020244908804FF4A0702349088006E06C
:102240004FF4A0701F490880F0201F4908803620F5
:1022500000F0D4F9082141EA421000F0D3F92A2015
:1022600000F0CCF9002000F0CDF9002000F0CAF910
:1022700014490988491EC1F3072000F0C3F9114928
:102280000978491EC8B200F0BDF92B2000F0B6F95C
:10229000002000F0B7F9002000F0B4F90A490988DD
:1022A000491EC1F3072000F0ADF907490978491E1E
:1022B000C8B200F0A7F92C2000F0A0F900BFADE7EC
:1022C0000C010020080100200A01002010B5FFF7D2
:1022D000C9FEFFF787FE0120FFF7D2FD00F070F97D
:1022E00000F034F802480078FFF794FF10BD0000BA
:1022F0000C01002030B504460D462A2000F07EF97E
:10230000201200F07FF9E0B200F07CF9A118491E1C
:10231000C1F30F2000F076F9A118491EC8B200F0F1
:1023200071F92B2000F06AF9281200F06BF9E8B27D
:1023300000F068F9E918491EC1F30F2000F062F9B6
:10234000E918491EC8B200F05DF930BD10B5CF20C4
:1023500000F054F9002000F055F9812000F052F906
:10236000302000F04FF9ED2000F048F9642000F033
:1023700049F9032000F046F9122000F043F98120CA
:1023800000F040F9E82000F039F9852000F03AF932
:10239000102000F037F9782000F034F9CB2000F05D
:1023A0002DF9392000F02EF92C2000F02BF9002017
:1023B00000F028F9342000F025F9022000F022F97D
:1023C000F72000F01BF9202000F01CF9EA2000F0B3
:1023D00015F9002000F016F9002000F013F9B120E3
:1023E00000F00CF9002000F00DF91B2000F00AF9B4
:1023F000B62000F003F90A2000F004F9A22000F052
:1024000001F9C02000F0FAF8352000F0FBF8C120F7
:1024100000F0F4F8112000F0F5F8C52000F0EEF817
:10242000452000F0EFF8452000F0ECF8C72000F060
:10243000E5F8A22000F0E6F8F22000F0DFF8002036
:1024400000F0E0F8262000F0D9F8012000F0DAF8DA
:10245000E02000F0D3F80F2000F0D4F8262000F0A0
:10246000D1F8242000F0CEF80B2000F0CBF80E209D
:1024700000F0C8F8092000F0C5F8542000F0C2F8B8
:10248000A82000F0BFF8462000F0BCF80C2000F0B7
:10249000B9F8172000F0B6F8092000F0B3F80F20C3
:1024A00000F0B0F8072000F0ADF8002000F0AAF826
:1024B000E12000F0A3F8002000F0A4F8192000F0BB
:1024C000A1F81B2000F09EF8042000F09BF81020DB
:1024D00000F098F8072000F095F82A2000F092F814
:1024E000472000F08FF8392000F08CF8032000F02E
:1024F00089F8062000F086F8062000F083F83020E6
:1025000000F080F8382000F07DF80F2000F07AF815
:10251000362000F073F8C82000F074F82A2000F08C
:102520006DF8002000F06EF8002000F06BF800203D
:1025300000F068F8EF2000F065F82B2000F05EF85E
:10254000002000F05FF8002000F05CF8012000F0AF
:1025500059F83F2000F056F83A2000F04FF8552087
:1025600000F050F8112000F049F80348FFF7B0FCE4
:10257000292000F043F810BDFCBF0200014800888C
:10258000704700000000026010B500220023002404
:102590002E2000F033F8FFF7F1FF0246FFF7EEFFC1
:1025A0000246FFF7EBFF0446FFF7E8FF0346D012B1
:1025B000C002991240EA411040EAE42010BD000038
:1025C00010B502210748FFF755FC40F6FF20FFF742
:1025D0007FFC02210348FFF74FFC40F6FF20FFF786
:1025E00077FC10BD0018014030B504460D460123AC
:1025F0001A4629462046FFF77DFE30BD4FF0C04108
:1026000008807047014908807047000000000260A0
:102610002DE9F04781468A4614461D462B46224640
:1026200051464846FFF766FE2C20FFF7E7FF0026DD
:1026300030E000272AE000BF4FF0000820201749B3
:1026400048611748006800F47040164909684FF463
:10265000706202EA011140EA010820200F49086176
:1026600048610F480068F02101EA10200D4909680F
:10267000C1F30311084340EA080820200749086114
:1026800000BF4046FFF7BEFF781C87B2AF42D2DBE7
:10269000701C86B2A642CCDBBDE8F087001001407A
:1026A000080C01400808014010B505F02FF810BDD6
:1026B00008B50121142000F031FB0120ADF8000025
:1026C00004208DF8030069460C48FFF73FFB4FF4E8
:1026D0000050ADF8000004208DF80300694608485A
:1026E000FFF734FB4FF40060ADF8000004208DF8D4
:1026F000030069460148FFF729FB08BD00080140B7
:102700000010014070B504460D46202014490860B1
:102710000120091F08600220091D08602946204683
:10272000FFF79FFB012810D100BF29462046FFF785
:1027300098FB0128F9D020200949091F08600120D1
:10274000086002200860012070BD20200449091F94
:10275000086001200860022008600020F4E7000003
:10276000140C01400148006870470000100100206F
:10277000024A1080024A11807047000014010020B4
:102780001601002001490860704700001001002078
:1027900008B50121082000F0C1FA2020ADF80000A2
:1027A00010208DF8030003208DF8020069460F48C1
:1027B000FFF7CCFA0120ADF8000069460B48FFF79F
:1027C000C5FA0220ADF8000069460848FFF7BEFAD6
:1027D00020210648FFF750FB01210448FFF74CFB7E
:1027E00002210248FFF748FB08BD0000000C014031
:1027F00000BFFEE7704708B54FF4C06000F048F82E
:1028000031208DF8000000208DF801008DF80200C5
:1028100001208DF80300684600F002F808BD0000B2
:1028200070B5002100230F22C47804B3154C24682E
:1028300004F4E064C4F5E064210AC1F10403CA4071
:10284000447804FA03F184781440214309010E4CC2
:102850000678A155047804F01F050124AC400578E2
:102860006D11AD0005F1E025C5F8004109E00478DF
:1028700004F01F050124AC40044D0678761145F89C
:10288000264070BD0CED00E000E400E080E100E0D7
:1028900002490143024A1160704700000000FA0536
:1028A0000CED00E070B50646301D092821D2DFE8A6
:1028B00000F01D1A1714110E0B08050048240625F8
:1028C0001AE03824062517E02824062514E01824E9
:1028D000062511E0082406250EE008240E250BE04D
:1028E00018240E2508E028240E2505E038240E259E
:1028F00002E000BF00BF00BF00BF21469B2000F0E8
:10290000A3FC2946AB2000F09FFC70BD10B5044627
:1029100014F1040F0EDB042C0CDC201D0007010E4B
:10292000A72000F091FC201D0007010EA82000F058
:102930008BFC01E000BF00BF10BD10B5044614F1D0
:10294000040F0BDB042C09DCC4F104003022A2EBE1
:102950008000C1B29C2000F077FC01E000BF00BF06
:1029600010BD10B500F034FBFEF77AFF02F0BAF9A3
:1029700010BD000038B500240020009080211220F6
:1029800000F062FC08B9002038BD0B220121684626
:1029900000F05AFB08B90020F6E79DF80000212856
:1029A00014D100240DE00B4A02EB44025178094A8D
:1029B00012F8140000F048FC08B90020E4E7601C9D
:1029C00084B2054800788442EDDB01E00020DBE7BB
:1029D0000120D9E76C0000200601002010B5044654
:1029E000062C79D2DFE804F003142D465F79FF212D
:1029F000132000F029FC65210E2000F025FC0021A9
:102A00002D2000F021FC00212E2000F01DFC70E0A4
:102A1000FD21132000F018FC5A21012000F014FCC5
:102A20005C21022000F010FC65210E2000F00CFC5F
:102A300000212D2000F008FC00212E2000F004FCD5
:102A400057E0FD21132000F0FFFB5821012000F08A
:102A5000FBFB6021022000F0F7FB65210E2000F057
:102A6000F3FB00212D2000F0EFFB00212E2000F0D1
:102A7000EBFB3EE0FD21132000F0E6FB842101206A
:102A800000F0E2FB4C21022000F0DEFB65210E206D
:102A900000F0DAFB00212D2000F0D6FB00212E20D3
:102AA00000F0D2FB25E0FD21132000F0CDFB9621A4
:102AB000012000F0C9FB4021022000F0C5FB652188
:102AC0000E2000F0C1FB00212D2000F0BDFB0021F5
:102AD0002E2000F0B9FB0CE008E0FF21132000F0ED
:102AE000B3FBE5210E2000F0AFFB02E000BF00BF0A
:102AF00000BF00BF10BD10B50446072C58D2DFE858
:102B000004F004111E2B384552000621A62000F0C7
:102B10009BFB8021602000F097FB8021612000F06A
:102B200093FB48E02621A62000F08EFB8021602048
:102B300000F08AFB8021612000F086FB3BE01E2133
:102B4000A62000F081FBA021602000F07DFB402149
:102B5000612000F079FB2EE01E21A62000F074FB1E
:102B60004021602000F070FBA021612000F06CFB90
:102B700021E01E21A62000F067FB8021602000F0EC
:102B800063FBC021612000F05FFB14E01E21A62042
:102B900000F05AFB6021084600F056FB60216120DE
:102BA00000F052FB07E04621A62000F04DFB02E0BA
:102BB00000BF00BF00BF00BF10BD2DE9F8430646AF
:102BC0000F4614461D46DDF82080B8F1000F04D1F1
:102BD0004621122000F038FB03E00621122000F00D
:102BE00033FB17220121684600F02EFA9DF8000001
:102BF00000EBA60000F0FF094946172000F024FB77
:102C0000C4F38701182000F01FFB19220121684638
:102C100000F01AFA9DF8000000EB670000F0FF09D1
:102C20004946192000F010FBC5F347011A2000F0B7
:102C30000BFB32220121684600F006FA04F0030083
:102C40009DF80010084305F0010140EA810006F0FC
:102C5000030140EA011007F0010140EA81194946E9
:102C6000322000F0F1FAC4F38701292000F0ECFAD9
:102C7000C5F347012C2000F0E7FA2A22012168461B
:102C800000F0E2F904F003009DF80010084305F09D
:102C9000010140EA810949462A2000F0D5FABDE841
:102CA000F883704708B50121042000F037F84FF48D
:102CB0008050ADF8000010208DF8030003208DF83F
:102CC000020069460448FFF741F84FF4805002497A
:102CD0001431086008BD00000008014029B1064A0F
:102CE00052690243044B5A6104E0034A5269824329
:102CF000014B5A61704700000010024029B1064A9A
:102D0000D2690243044BDA6104E0034AD269824388
:102D1000014BDA61704700000010024029B1064AF9
:102D200092690243044B9A6104E0034A9269824328
:102D3000014B9A61704700000010024030B500213D
:102D40000022002400232D4D6D6805F00C0121B1F7
:102D5000042905D0082923D105E0294D056022E08A
:102D6000274D05601FE0254D6D6805F47012234D59
:102D70006D6805F48034022505EB92421CB9214DA3
:102D8000554305600BE01D4D6D6805F400351DB120
:102D90001C4D5543056002E0194D5543056002E0A6
:102DA000174D056000BF00BF144D6D6805F0F001C0
:102DB0000909154D6B5C0568DD4045600F4D6D6878
:102DC00005F4E061090A104D6B5C4568DD408560E3
:102DD0000A4D6D6805F46051C90A0B4D6B5C45687E
:102DE000DD40C560054D6D6805F44041890B074D18
:102DF0006B5CC568B5FBF3F5056130BD00100240A2
:102E000000127A0000093D00140000202400002078
:102E100010B504F035FC472004F008FC00BF04F0B6
:102E200057FC0028FBD1012004F0D8FB06490870AC
:102E3000002004F0D3FB0449487004F039FC4FF43F
:102E4000FA7005F0E9F910BD4001002070B50025C9
:102E5000002424E000BF40211348FFF702F80028B7
:102E6000F9D0042005F0D8F940210F48FEF7F9FF0A
:102E700001280DD100BF40210B48FEF7F2FF0128C9
:102E8000F9D0C4F1070101208840C0B2054304E035
:102E9000C4F10701012088408543601CC4B2082C9E
:102EA000D8DB284670BD00000018014010B504466C
:102EB000FDF794FF40212848FEF7DCFF4FF4E16066
:102EC00005F0AAF940212448FEF7D6FF032005F0BB
:102ED000A3F9FDF775FF40211F48FEF7C2FF002848
:102EE00035D100BF40211C48FEF7BBFF0028F9D0B8
:102EF00000BF40211848FEF7B4FF0128F9D0FFF7C2
:102F0000A5FF2070FFF7A2FF6070FFF79FFFA07082
:102F1000FFF79CFFE070FFF799FF2071FDF75EFF60
:102F200040210D48FEF7A8FF207861780844A17879
:102F30000844E17808442179884202D10120607177
:102F400010BD06A001F00CFF00206071F8E70AA098
:102F500001F006FF0020F3E7001801404448543117
:102F6000313A20636865636B73756D206E6F7420F2
:102F7000657175616C210A0044485431313A204E24
:102F80006F20726573706F6E73652066726F6D204F
:102F9000536C617665210A0010B540210B48FEF79D
:102FA00069FF00F071F980210848FEF763FF00F027
:102FB0006BF940210548FEF75FFF00F065F94021FD
:102FC0000248FEF757FF00F05FF910BD0010014006
:102FD00008B501211020FFF7A1FE4020ADF8000048
:102FE00003208DF8020014208DF80300694607487D
:102FF000FEF7ACFE01211020FFF790FE8020ADF817
:10300000000069460148FEF7A1FE08BD001001401E
:1030100010B540210B48FEF72DFF00F035F9802157
:103020000848FEF729FF00F02FF940210548FEF778
:1030300023FF00F029F940210248FEF71BFF00F0B2
:1030400023F910BD0010014070B505460C46164628
:1030500000F08EF808B9002070BD422000F05CF846
:1030600000F0CCF818B900F0ADF80020F4E73046D5
:1030700000F052F800F0C2F800F0A4F800F078F880
:1030800008B90020E8E7432000F046F800F0B6F861
:1030900018B900F097F80020DEE70CE000F012F815
:1030A0002870012C02D1FFF7B3FF01E0FFF774FF96
:1030B0006D1C601E84B2002CF0D100F083F801205A
:1030C000CAE7000070B50825002480211148FEF7EA
:1030D000D3FE14E06006040E40210E48FEF7CAFE3F
:1030E00000F0D2F840210B48FEF7C6FE00F0CCF805
:1030F00080210848FEF7B5FE08B144F00104281EFF
:10310000A5F10101CDB2E5D140210248FEF7B2FEA2
:10311000204670BD0010014070B5044608251BE034
:1031200040211248FEF7A6FE00F0AEF804F0800041
:1031300020B180210D48FEF79FFE03E080210B485F
:10314000FEF798FE6006040E00F09EF84021074846
:10315000FEF792FE00F098F8281EA5F10101CDB20D
:10316000DED140210148FEF785FE70BD0010014010
:1031700010B580211248FEF77FFE40211048FEF76F
:103180007BFE00F081F880210D48FEF76AFE08B949
:10319000002010BD80210A48FEF76CFE00F074F894
:1031A00080210748FEF75DFE08B10020F1E780218D
:1031B0000348FEF75FFE00F067F80120E9E7000032
:1031C0000010014010B540210B48FEF753FE00F0FF
:1031D0005BF880210848FEF74DFE00F055F84021CD
:1031E0000548FEF749FE00F04FF880210248FEF73F
:1031F00043FE00F049F810BD0010014010B5402119
:103200001048FEF737FE00F03FF880210D48FEF72A
:1032100033FE00F039F840210A48FEF72DFE00F099
:1032200033F880210748FEF71CFE28B140210548ED
:10323000FEF720FE002010BD40210248FEF71AFED6
:103240000120F8E70010014070B504460D46FFF775
:103250008FFF08B9002070BD4220FFF75DFFFFF728
:10326000CDFF18B9FFF7AEFF0020F4E7E0B2FFF79B
:1032700053FFFFF7C3FF2846FFF74EFFFFF7BEFFE0
:10328000FFF7A0FF0120E6E74FF4C87001E0411E00
:1032900088B20028FBD170477CB505460024002089
:1032A0000090019000F0E2F800F0007010B10E24E0
:1032B00020467CBD3D49098888B26946FEF730FC4E
:1032C00004460CB12046F4E7012D36D1019800F4F4
:1032D000802000282ED0354800880004344908603A
:1032E00037204860402088600020C860A80208613C
:1032F000084600F0F9F83720FDF736FC04460CB11B
:103300002046D6E702202A4908600620486040206F
:1033100088600020C8604FF480600861084600F0B3
:10332000E3F80620FDF720FC04460CB12046C0E778
:103330002046BEE725242046BBE7019800F48030F4
:1033400078B31A480088000419490860372048609B
:10335000402088600020C8604FF480600861084603
:1033600000F0C2F83720FDF7FFFB04460CB1204601
:103370009FE700200E4908600620486040208860D2
:103380000020C8604FF480600861084600F0ACF887
:103390000620FDF7E9FB04460CB1204689E72046EC
:1033A00087E7FFE72524204683E700004C01002043
:1033B000984A00200149886370470000008001405E
:1033C000014988637047000000800140014908609E
:1033D00070470000A00030420149086070470000BB
:1033E0008C05304200210A4B02685A6242689A6298
:1033F0001A46D16A21F0F701D0E902231A43036982
:103400001A4343691A431143014AD16270470000CD
:103410000080014000200649086048608860C8605C
:1034200048628862C862034888630020C8637047A6
:1034300000800140FF07C00001480069C0B270472A
:103440000080014001460020034A526B0A400AB145
:10345000012000E000207047008001400248006821
:1034600000F00300704700000080014008B50146ED
:10347000002000900248084400900098006808BDB1
:103480001480014010B500F027FC10BD29B1064A98
:10349000D26B0243044BDA6304E0034AD26B8243EB
:1034A000014BDA63704700000080014000210A4AA6
:1034B000516847F6FF629143027D83681A4343686F
:1034C0001A43C3681A4303681A4303691A43114332
:1034D000014A5160704700000080014001480068C7
:1034E00070470000808001400021094B02689A600B
:1034F0001A46D1686FF30A01D0E901231A43C36861
:103500001A4303691A431143014AD160704700000E
:10351000008001400549096821F00301034A116058
:1035200011460968014311607047000000800140A6
:1035300010B50248FDF77EFC10BD00000020001011
:1035400030B58BB005460C461348FDF759FC0021F9
:103550001248FDF763FC124800900195002002908C
:10356000A008039000200490802005908000069021
:1035700080000790002008904FF400500990002030
:103580000A9069460548FDF76BFC01210348FDF7E9
:1035900045FC0BB030BD000000F0001044040240B8
:1035A0008080014030B58BB005460C461348FDF7CE
:1035B00027FC00211248FDF731FC124800900195CC
:1035C00010200290A0080390002004908020059015
:1035D0008000069080000790002008904FF4005073
:1035E000099000200A9069460548FDF739FC012141
:1035F0000348FDF713FC0BB030BD000000F00010D5
:10360000440402408080014070B5044600252148F2
:103610000068032802D12725284670BD1D48006890
:1036200038B11C480068012803D01A4800680228F5
:103630002ED1B4F5805F02D127252846EDE7B4F5F9
:10364000006F14D10120FFF727FE054605BB0120BE
:103650001149087500200860486088604FF40060D8
:10366000C860002008610846FFF720FF10E0002036
:10367000FFF712FE05465DB90120074908750020D5
:10368000086048608860C86008610846FFF70EFF60
:103690002846C2E748010020804A002030B5014694
:1036A00000200022AC4B1B7881F84E30AB4B1B88BE
:1036B000A1F84C30AA4B1B681A0E93090B70C2F389
:1036C00083034B7002F003038B70A54B1B68C3F39D
:1036D0000742CA70A24B1B88C3F307220A71A04B92
:1036E0001A784A715B681A0E1301CB809C4B5B6899
:1036F000C3F30742CB8843EA1213CB8002F00F03D7
:103700000B72974B9B88C3F30722D3094B72C2F30A
:1037100080138B72C2F34013CB72C2F300130B738E
:1037200000234B738C4B1B681BB18B4B1B68012B0D
:103730003CD193071B0D0B61894B1A790B6943EA46
:1037400082030B61864B9B681A0E0B6943EA921346
:103750000B61C2F3C2030B7502F007034B75804B7C
:103760009B68C3F3074253098B75C2F38203CB7581
:1037700093075B0F0B767A4B1B89C3F307220B7EF3
:1037800043EAD2130B760B695B1C4B640C7E4B6CCB
:10379000A41C0125A5406B434B640C7A0123A34074
:1037A0008B64D1E9113463434B6421E06A4B1B689D
:1037B000022B1DD16A4B1A7993069B0A0B61684B49
:1037C0009B681A0E0B6943EA02230B61644B9B68EA
:1037D000C3F307420B6913430B61614B1B89C3F3AE
:1037E00007220B695B1CDB044B644FF400738B6492
:1037F000C2F3801301F8193F93065B0E4B70584BD0
:103800001A7A4B7843EAD2134B7002F07F038B7025
:10381000534BDB681A0ED309CB70C2F341130B7103
:10382000C2F382034B7193071B0F8B714C4BDB6808
:10383000C3F307428B7943EA92138B71C2F34013AF
:10384000CB7100230B7202F001034B72444B9B8936
:10385000C3F30722D3098B72C2F38013CB72C2F376
:1038600040130B73C2F300134B73C2F381038B73CA
:1038700002F00303CB733A4B1A7B53080B740123FA
:103880004B74384B1B681A0ECA741939354B1B68B8
:10389000C3F307421402CC85324B1B88C3F30722C3
:1038A000CB8D1343CB852F4B1A7814060C635B68C2
:1038B0001A0E0B6B43EA02440C632A4B5B68C3F39A
:1038C00007420B6B43EA02240C63264B9B88C3F32D
:1038D00007220B6B13430B63224B1A7934235A5480
:1038E000204B9B681A0E35235A541E4B9B68C3F31A
:1038F000074214068C631B4B1B89C3F307228B6B97
:1039000043EA02448C63174B1A7A8B6B43EA022416
:103910008C63144BDB681A0E8B6B13438B63114B58
:10392000DB68C3F307423C235B5C43EA12143C238D
:103930005C5413071C0DCC870A4B9B89C3F30722E9
:10394000CB8F1343CB87074B1A7B540840235C541F
:10395000012441235C5430BD480100204C0100206B
:10396000004A0020104A002008B500200090684658
:1039700000F06CFA08B1FF2008BD0098C0F34320A6
:10398000FAE710B50424FFF7EFFF0446042C01D139
:10399000002010BDFF2C01D10220FAE70120F8E73A
:1039A00010B50024FEF727FFFEF788F9FFF732FD78
:1039B00000F0CEF804460CB1204610BD00F02AF805
:1039C00004460CB12046F8E7012010490875002094
:1039D000086048608860C86008610846FFF766FDB7
:1039E0001CB90B48FFF75AFE044634B90849B1F830
:1039F0004C10080400F010FA044624B94FF400609B
:103A0000FFF702FE04462046D7E70000804A002068
:103A1000304A002038B5002401200090FFF71EFD39
:103A200010B92524204638BD44480068042828D011
:103A300000204349086002204860C02088600020C0
:103A4000C8604FF4806008610846FFF74DFDFDF740
:103A50009FF804460CB12046E5E70020FFF706FD7D
:103A6000384908600420FFF701FD36494860082006
:103A7000FFF7FCFC334988600C20FFF7F7FC314965
:103A8000C8602E48006858B12C480068012807D04B
:103A90002A480068062803D028480068022816D162
:103AA00000202749086003204860402088600020EB
:103AB000C8604FF4806008610846FFF715FD69464D
:103AC0000320FDF7A7F804460CB12046ABE71B48DE
:103AD000006804282ED0BDF800001B490860BDF81E
:103AE000000000041649086009204860C020886072
:103AF0000020C8604FF4806008610846FFF7F4FCBE
:103B0000FDF746F804460CB120468CE70020FFF78D
:103B1000ADFC0E4908600420FFF7A8FC0B49486083
:103B20000820FFF7A3FC094988600C20FFF79EFCE2
:103B30000649C8600024204675E7000048010020BF
:103B4000984A0020104A00204C010020004A002022
:103B50002DE9F0410024002600250027A046B220D0
:103B6000594908750020086048608860C86008618D
:103B70000846FFF79BFC0320FFF7CCFC0120FFF772
:103B800025FC00205149086048608860C8604FF4F7
:103B9000806008610846FFF7A7FCFCF7CEFF0446EB
:103BA00014B12046BDE8F0814FF4D5704749086054
:103BB00008204860402088600020C8604FF4806082
:103BC00008610846FFF790FCFDF772F804462CB92F
:103BD00001203F4908604FF0804812E000203B4937
:103BE000086037204860402088600020C8604FF49B
:103BF000806008610846FFF777FC3720FCF7B4FFC8
:103C00000446002031490860372048604020886021
:103C10000020C8604FF4806008610846FFF764FC2C
:103C20003720FCF7A1FF0446002C4AD136E00020E3
:103C30002649086037204860402088600020C8601E
:103C40004FF4806008610846FFF74EFC3720FCF710
:103C50008BFF04460CB12046A4E71E4848EA00004A
:103C60001A49086029204860402088600020C86008
:103C70004FF4806008610846FFF736FCFCF7AEFFA2
:103C800004460CB120468DE70020FFF7EFFB064607
:103C9000012080EAD67080F001076D1C1FB94FF635
:103CA000FF708542C3D34FF6FF70854202D31B24B9
:103CB000204677E706F08040061E02D00220044925
:103CC000086020466EE70000804A0020984A0020E5
:103CD000480100200000108010B51148006801283C
:103CE0000BD100200F49886040F24C40C8600C2086
:103CF000FCF73AFF0C49087002E000200A490870FE
:103D00004FF48070FFF75CFB00214FF48070FFF7E9
:103D1000BDFB0120054908600348007810BD000084
:103D20005001002000800140540100205801002073
:103D30002DE9F04180460D4614461E46002700201E
:103D40002E4908702E49086001202E490860002085
:103D50002D49C8622D480068022801D104026D0A6D
:103D60002B48046010202A494860402088600020C9
:103D7000C8604FF4806008610846FFF7B5FB10206B
:103D8000FCF7F2FE074617B13846BDE8F0814FF068
:103D9000FF302049086006FB04F0486090208860EE
:103DA0000220C86000200861012048610846FFF732
:103DB00019FB1748056012201549486040208860AB
:103DC0000020C8604FF4806008610846FFF78CFB54
:103DD0001220FCF7C9FE07460FB13846D5E701218E
:103DE0000802FFF753FB0120FFF7F6FA06FB04F188
:103DF0004046FFF7A5FB3846C7E700005401002006
:103E0000580100205001002000800140480100209E
:103E1000984A0020AC4A002070B5044600250A48A4
:103E20000460072008494860402088600020C8607E
:103E30004FF4806008610846FFF756FB0720FCF747
:103E400093FE0546284670BD984A002070B504468A
:103E500000250A48008800040949886040F24D4066
:103E6000C8600D20FCF780FE05460DB1284670BDE8
:103E70000348406920602846F9E700004C01002013
:103E80000080014010B5002400BFFFF751FB30B99E
:103E90000748006818B9074800780028F5D0054899
:103EA000007810B10348007810BD2046FCE7000000
:103EB000580100205401002010B5002400BFFFF776
:103EC00037FB30B90948006818B90948007800285C
:103ED000F5D00748007810B10548007810BD40F2D1
:103EE000FF50FFF767FA2046F8E70000580100206E
:103EF000540100202DE9F84380460F4615461E4622
:103F000000240020009045490870454908600120C0
:103F10004449086000204449C862444800680228B7
:103F200001D105027F0A42480560102040494860DF
:103F3000402088600020C8604FF480600861084617
:103F4000FFF7D2FA1020FCF70FFE044614B120460A
:103F5000BDE8F883374800880004354908603720F9
:103F60004860402088600020C8604FF4806008618D
:103F70000846FFF7B9FA3720FCF7F6FD04460CB106
:103F80002046E5E72A480660172029494860402076
:103F900088600020C8604FF4806008610846FFF721
:103FA000A3FA1720FCF7E0FD04460CB12046CFE74A
:103FB0001F48076019201E49486040208860002083
:103FC000C8604FF4806008610846FFF78DFA192039
:103FD000FCF7CAFD04460CB12046B9E74FF0FF30AC
:103FE0001549086006FB05F04860902088600020B5
:103FF000C8600861012048610846FFF7F3F9012114
:104000000802FFF743FA0120FFF7E6F906FB05F186
:104010004046FFF7C7FA20469AE700005401002007
:10402000580100205001002000800140480100207C
:10403000984A00204C010020AC4A00207047000044
:10404000F0B5A5B044480078401C434908700846C4
:10405000027842A107A800F093FE44A000F080FE81
:1040600020204C490860012008600220091D0860DA
:104070000A2207A9484802F061FC4849087008462E
:104080000078002859D146A000F06AFE5448006824
:10409000FCF79DFA04460D4652480068FCF797FA73
:1040A00002AA33C25048C0784F498978CDE9001040
:1040B0004D48437802784D4911A800F061FE4C4B01
:1040C000502211A9344802F050FD344908700846C6
:1040D0000078A8B94648016846A000F041FE11A941
:1040E0004DA000F03DFE2C4802F0A7F82020294901
:1040F00008600120091D08600220091F086010E007
:10410000264801784CA000F02BFE234802F095F8D9
:1041100020202049091D08600120091F0860022095
:1041200008604CF2503004F077F8202019490860FC
:1041300001200860022008600BE020201549091DBD
:1041400008600120091F08600220086040A000F0FC
:1041500007FE25B0F0BD000045000020303A646144
:1041600074615F25642E7478740000000D0A2A2A99
:104170002A2A2A2A20BCB4BDABBDF8D0D0CEC4BCFC
:10418000FED0B4C8EB2E2E2E202A2A2A2A2A2A0D47
:104190000A000000100C0140D4110020380000205B
:1041A000A1B7B4F2BFAA2FB4B4BDA84661744673D8
:1041B000B6C1D0B4B2E2CAD4CEC4BCFE2E747874F8
:1041C000CEC4BCFEB3C9B9A6A3ACCFF2CEC4BCFE6C
:1041D000D0B4C8EBCAFDBEDDA1A30D0A00000000EB
:1041E000340000203C0100202C00002008CB0008F7
:1041F0003C000020A1B7CEC4BCFED0B4C8EBB3C90C
:10420000B9A6A3ACD0B4C8EBD7D6BDDACAFDBEDD23
:10421000A3BA25640A000000A1B7CFF2CEC4BCFE49
:10422000D0B4C8EBB5C4CAFDBEDDCEAAA3BA0D0A90
:1042300025730D0A00000000A3A1A3A1CEC4BCFEFB
:10424000D0B4C8EBCAA7B0DCA3BA282564290A00F9
:10425000A3A1A3A1B4F2BFAA2FB4B4BDA8CEC4BC7D
:10426000FECAA7B0DCA1A30D0A00000000B58BB008
:104270002A480078401C294908700846027828A17D
:1042800001A800F07DFD2020294908600120086078
:104290000220091D086027A000F062FD2949887BE3
:1042A000FDF7B8FF01A80090274803882748028837
:1042B0000021084600F05CF8B8B925A000F050FDD8
:1042C00020201B4908600120091D08600220091FE9
:1042D00008604CF2503003F09FFF20201449086022
:1042E000012008600220086016E01DA000F038FDE3
:1042F00020200F49091D08600120091F08600220C5
:1043000008604CF2503003F087FF20200849086015
:1043100001200860022008600BB000BD44000020AE
:10432000303A70686F746F5F25642E626D700000A4
:10433000100C01400D0AD5FDD4DABDD8CDBC2E2E0F
:104340002E000000580000200A0100200801002073
:104350000D0ABDD8CDBCB3C9B9A6A3A10000000009
:104360000D0ABDD8CDBCCAA7B0DCA3A100000000D7
:104370002DE9FF4F95B014461D4638225DA107A8D0
:10438000FBF7F2FE002001902046E11704EB91714B
:104390008910A4EB810204FB05F101EB410105FB4F
:1043A000021101F13607F8B28DF81E00380A8DF8B7
:1043B0001F00380C8DF82000380E8DF82100A04623
:1043C00008F0FF008DF82E004FEA18208DF82F001E
:1043D0004FEA18408DF830004FEA18608DF8310030
:1043E000A94609F0FF008DF832004FEA19208DF838
:1043F00033004FEA19408DF834004FEA19608DF808
:1044000035000A224948229902F098FA4849087072
:10441000464801F012FF02224448229902F08EFA27
:104420004349087008460078002860D102AB362264
:1044300007A93E4802F099FB3D4908702046E11764
:1044400004EB91718910A4EB810101F0FF0B0026B0
:1044500044E00020069032E0169A2A44521E921B35
:1044600091B2069B159A1A4490B2FDF7C7FE824698
:104470004FEADA20C0000590CAF34510800004908E
:104480004FEACA60000E039002AB012203A927483D
:1044900002F06BFB2649087002AB012204A92348F5
:1044A00002F063FB2249087002AB012205A91F48F4
:1044B00002F05BFB1E4908700698401C06900698A7
:1044C000A042C9DBBBF1000F07D05A4602AB01A9DD
:1044D000164802F04AFB16490870761CAE42B8DB5B
:1044E000124801F0AAFE002019B0BDE8F08F4FF08D
:1044F000FF30F9E7424D00000000000000003600E8
:104500000000280000000000000000000000010082
:104510001800000000000000000000000000000083
:10452000000000000000000000000000B82900208A
:10453000440100202DE9F047ADF5B45D4FF050097E
:104540003448008890FBF9F833A000F009FC0523FB
:10455000002237A10120FCF72BFF44F6206003F076
:104560005BFE002445E008FB04F61FE0002718E08E
:1045700008FB14603149098800FB017A254A12883A
:10458000521E921B91B2B8B2FDF738FE0546280ABA
:104590000DF81A00E9B24FEA4A00401C0DF800106D
:1045A0007F1C264800888742E2D3761C601C08FBEB
:1045B00000F0B042DAD84FF4F0620DF5F0616846D1
:1045C00001F060F80DF5F060FBF704FE82460DF592
:1045D000F06251461AA000F0C3FB052300220DF53E
:1045E000F0610120FCF7E4FE4EF6602003F014FEBB
:1045F000641C4C45B7D34CF2503003F00DFE05233C
:10460000002215A10120FCF7D3FE0DF5B45DBDE835
:10461000F08700000A0100207374617274207365D2
:104620006E64696E672070686F746F0A0000000026
:10463000626D7073746172740000000008010020E4
:1046400053656E643A205B6C656E677468203D202C
:1046500025645D25730A0000626D70656E6400005C
:1046600010B500F001F810BD0CB5002001900090CD
:104670003348006840F480303149086000BF30485A
:10468000006800F4003000900198401C01900098F0
:1046900018B90198B0F5A06FF1D12948006800F46D
:1046A000003010B10120009001E00020009000983F
:1046B000012843D12348006840F0100021490860D8
:1046C0000846006820F0030008600846006840F0D3
:1046D000020008601A484068194948600846406866
:1046E00048600846406840F480604860084640687A
:1046F00020F47C1048600846406840F4E8104860A8
:104700000846006840F08070086000BF0C480068F0
:1047100000F000700028F9D00948406820F003003C
:10472000074948600846406840F00200486000BF02
:104730000348406800F00C000828F9D10CBD0000C7
:10474000001002400020024010B50120FCF7D6FA0C
:104750000720FCF7D3FA2020FCF7D0FA10BD0000A8
:1047600010B520480068401C1E49086000F0BCF8E5
:1047700000F0B2F81B4800681B49884207D10020AE
:104780001849086019480068401C18490860174813
:1047900000683C2807D100201449086014480068CC
:1047A000401C13490860124800683C2807D10020CB
:1047B0000F4908600F480068401C0E49086000243B
:1047C0000CE00D4850F8240030B10B4850F824009C
:1047D000401E094941F82400601CC4B2052CF0DBDE
:1047E00010BD000054000020A08601004C000020F5
:1047F00048000020500000208401002030B51A48F5
:1048000000681A4AB0FBF2F1B1F1807F01D30120B8
:104810001DE021F07F40401E4FF0E0225061501714
:104820000F22002807DA13071D0E114B00F00F04AA
:10483000241F1D5503E013071C0E0E4B1C5400BF14
:1048400000204FF0E022906107201061002008B1A5
:1048500000BFFEE74FF0E020006920F001004FF0BC
:10486000E021086130BD000000000020A0860100AA
:1048700018ED00E000E400E010B51348006840F0D7
:1048800001001149086008464068104908400E4977
:104890004860084600680E4908400B490860084611
:1048A000006820F4802008600846406820F4FE007C
:1048B00048604FF41F008860FFF7D2FE4FF00060A1
:1048C0000449086010BD0000001002400000FFF81D
:1048D000FFFFF6FE08ED00E002480068401C0149B9
:1048E00008607047380100200448006820B1034880
:1048F0000068401E01490860704700003401002034
:1049000010B540F22551204800F0A3F8D8B11E4858
:1049100000F05AF9C4B21D48B0F80004C0F30E000C
:1049200040F2FF3188420EDA1849B1F80014C1F3A1
:104930000E00411C154AB2F8002461F30E0213491F
:10494000A1F800240C5440F224410F4800F081F8F3
:10495000012817D10D48B0F8000420F4004000F5FC
:1049600000400A49A1F80004074800F02DF9C4B23C
:1049700007A10648FBF71CFC08B1012000E000205D
:104980000649087010BD000000480040C44A0020DD
:10499000434C4F5345440D0A000000005C010020C9
:1049A00021B1828942F40052828104E082894DF66D
:1049B000FF731A408281704700B585B00121042041
:1049C000FEF7ACF901218803FEF7A8F94FF4007057
:1049D000ADF8100018208DF8130003208DF8120098
:1049E00004A91348FDF7B2F94FF48060ADF8100048
:1049F00004208DF8130004A90D48FDF7A7F94FF422
:104A0000E13000900020ADF80400ADF80600ADF8EC
:104A10000800ADF80C000C20ADF80A006946054806
:104A200000F066F801210348FFF7BAFF05B000BDAA
:104A3000000801400038014002460020B1F5007F27
:104A400000D100BF13880B400BB1012000E0002013
:104A5000704770B50246002400230025002040F670
:104A60006A16B14200D100BFC1F3421501F01F0325
:104A7000012606FA03F3012D02D19689334006E0A0
:104A8000022D02D1168A334001E0968A33400C127F
:104A9000012606FA04F41688344013B10CB1012043
:104AA00000E0002070BDF0B503460024002600257C
:104AB000002040F66A17B94200D100BF1846C1F382
:104AC000421401F01F06012707FA06F5012C01D157
:104AD0000C3004E0022C01D1103000E014301AB187
:104AE00007682F43076002E00768AF430760F0BD27
:104AF0002DE9F04786B005460E460024A24600BFC9
:104B0000A1460027B08900B100BF2F462C8A4CF681
:104B1000FF700440F08804432C82AC894EF6F310F9
:104B20000440B08831890843718908430443AC814B
:104B3000AC8A4FF6FF400440B0890443AC8201A820
:104B4000FEF7FCF81F48874202D1DDF810A001E013
:104B5000DDF80CA0A88900F4004040B10AEBCA00BF
:104B600000EB0A1031684900B0FBF1F807E00AEBEE
:104B7000CA0000EB0A1031688900B0FBF1F864202C
:104B8000B8FBF0F004012009642101FB1089A88919
:104B900000F4004040B1322000EBC900B0FBF1F05E
:104BA00000F00700044308E0322000EB0910642104
:104BB000B0FBF1F000F00F0004432C8106B0BDE81B
:104BC000F08700000038014001468888C0F30800E3
:104BD0007047C1F30802828070470FB470B586B089
:104BE00006460CA8019073E00B9800785C281CD155
:104BF0000B98401C0B9000786E2809D072280FD1BA
:104C00000D213046FFF7E5FF0B98401C0B900BE0A1
:104C10000A213046FFF7DDFF0B98401C0B9003E0A4
:104C20000B98401C0B9000BF4BE00B980078252898
:104C300040D10B98401C0B900078642818D0732842
:104C400033D1019810C801900BE021783046FFF76E
:104C5000C0FF00BF80213046FFF7EEFE0028F9D0EC
:104C6000641C20780028F0D10B98401C0B9020E0A9
:104C7000019820C801900A2202A9284602F05EFD90
:104C800002AC0BE021783046FFF7A3FF00BF802184
:104C90003046FFF7D1FE0028F9D0641C20780028A8
:104CA000F0D10B98401C0B9003E00B98401C0B902C
:104CB00000BF06E00B9810F8011B0B903046FFF781
:104CC00088FF00BF80213046FFF7B6FE0028F9D0EC
:104CD0000B980078002887D106B070BC5DF814FBF3
:104CE00000BFFEE71FB501211120FEF717F80820CD
:104CF000ADF80C0004208DF80F0003208DF80E0095
:104D000003A91648FDF722F803210220FCF7FEFF55
:104D10000820019000208DF808000C208DF8090073
:104D200001208DF80A0001A8FCF750FD0820FCF7CF
:104D300031FD4FF4C060FDF7ABFD09208DF8000098
:104D400000208DF8010003208DF8020001208DF86D
:104D500003006846FDF764FD1FBD00000010014020
:104D60000FB4054B10B503A9044A029800F0EEF801
:104D700010BC5DF814FB0000097300086C010020F2
:104D80000FB4084B10B504A902AA039800F0DEF88E
:104D9000044602A9002000F070FC204610BC5DF81B
:104DA00014FB00007B56000802E008C8121F08C16F
:104DB000002AFAD170477047002001E001C1121F9C
:104DC000002AFBD1704700002DE9FF5F82B000216F
:104DD000DDE90430020DDDF840B0034318D044F69D
:104DE0001050A2F2FF3242431514119801281FD02F
:104DF000A5EB0B00401C5FEA000A4FF000064E4F87
:104E0000DFF83891B046504615D5CAF1000413E0DA
:104E1000119801244AA3012801D16FEA0B010298DD
:104E2000119AC0E90031C0E9024206B0BDE8F09F26
:104E3000CBF10000DFE704460021404A491842EB6D
:104E40000450CDE9001012E0E00707D032463B469F
:104E500040464946FBF7C4FA8046894632463B46FF
:104E600010461946FBF7BCFA06460F466410002CA4
:104E7000EAD1DDE90401DDE90023BAF1000F06DA29
:104E8000FBF7AEFA42464B46FBF7AAFA05E0FBF702
:104E900019FB42464B46FBF715FB04460E46002223
:104EA000284BFBF7E1FC03D84FF0FF30014607E049
:104EB0000022254B20463146FBF7EBF9FBF7BCFC03
:104EC000102409E0002C0ADB0A220023FBF7CEFBAA
:104ED000039B30321A55641E50EA0102F2D1641C61
:104EE000039AC4F111031444119A012A03D0012238
:104EF00008430DD10AE0084304D000204FF0110B05
:104F0000119072E7A3EB0B056D1E0DE05B4504DD10
:104F10004FF0000205F1010504E003DA4FF0000252
:104F2000A5F10105002AECD002981199C0E90231DF
:104F3000C0E9004579E70000000014400000F03FA0
:104F4000300000000000F0430000E03F2DE9FF4F7B
:104F500095B09B468946064600250FE2252877D165
:104F600000242746F84A0121059400E0044316F87E
:104F7000013F203B01FA03F01042F7D130782A2894
:104F800011D06FF02F033078A0F13002092A16D823
:104F9000059A44F0020402EB820203EB4202104441
:104FA000761C0590EFE759F8042B0592002A03DAE6
:104FB000504244F40054059044F00204761C3078CA
:104FC0002E2816D116F8010F44F004042A280DD01B
:104FD0006FF02F023078A0F13003092B09D807EBCE
:104FE000870302EB4303C718761CF3E759F8047BE9
:104FF000761C30786C280FD006DC4C2817D0682837
:105000000DD06A2814D104E0742810D07A280FD16A
:105010000DE044F400140AE044F4801401E044F488
:1050200040147278824202D104F58014761C761CFA
:10503000307866280BD013DC582877D009DC00289C
:1050400075D04528F6D04628F4D047281AD19DE1DE
:1050500018E0632835D0642879D0652812D195E10D
:10506000702873D008DC6728F1D069286FD06E28CB
:105070000DD06F2806D1B5E073282CD0752875D0D7
:10508000782874D05A46179990476D1C75E1C4F37F
:105090000250022809D003280DD0D9F800100428A6
:1050A0000DD00D6009F1040967E1D9F80010EA1785
:1050B000C1E90052F6E7D9F800100D80F2E70D7053
:1050C000F0E719F8041B8DF8001000208DF801009E
:1050D000EA46012003E059F804AB4FF0FF306107C6
:1050E0004FF0000102D40DE008F101018846B942F9
:1050F0000FDA8045F8DB1AF808100029F4D108E02F
:1051000008F1010188468142FADB1AF808100029EB
:10511000F6D105985B46A0EB080721463846179A5A
:1051200000F094FA284400EB080507E04DE029E17F
:105130000DE01AF8010B5A4617999047B8F101088B
:10514000F7D25B4621463846179A13E142E00A221D
:105150000092C4F302524FF0000A022A08D059F814
:1051600004CB032A4FEAEC710AD00DE029E02AE0D3
:1051700009F1070121F00702F2E802C1914609E0B6
:105180000FFA8CFC4FEAEC71042A03D14FFA8CFC25
:105190004FEAEC71002907DA0A460021DCF1000C25
:1051A00061EB02012D2202E0220504D52B228DF8AD
:1051B0000420012203E0E20701D02022F7E7904615
:1051C00059E00A2102E010220DE010214FF0000A00
:1051D00000910BE010224FF0000A44F0040408276D
:1051E000009203E008224FF0000A0092C4F302523A
:1051F000022A05D059F804CB0021032A08D009E07F
:1052000009F1070121F00702F2E802C1914605E029
:105210001FFA8CFC042A01D10CF0FF0C4FF000089F
:10522000220728D5702806D0009B83F0100353EA8C
:105230000A0305D00EE040228DF80420012208E088
:105240005CEA010206D030228DF804208DF80500BA
:1052500002229046009B83F0080353EA0A030AD116
:105260005CEA010201D1620705D530228DF80420E5
:105270004FF001087F1E582804D034A003900EA8D8
:1052800002900DE036A0F9E753466046009AFBF71E
:10529000EDF984460398825C0298401E02900270E9
:1052A0005CEA0100F0D1029806A9081A00F1200A70
:1052B000600702D524F4803400E00127574502DD61
:1052C000A7EB0A0000E0002000EB0A01009005981F
:1052D0004144401A0590E00306D45B462146179AE4
:1052E000059800F0B3F90544002706E001A85A46E6
:1052F000C05D179990476D1C7F1C4745F6DBE003A6
:105300000CD55B462146179A059800F09FF9054495
:1053100004E030205A46179990476D1C0099481EAA
:1053200000900029F5DC08E0029802995A460078BE
:10533000491C0291179990476D1CBAF10001AAF11E
:10534000010AF1DC65E10000092801003031323347
:1053500034353637383961626364656600000000B1
:10536000303132333435363738394142434445469B
:105370000000000000F058F90544761C3078002841
:105380007FF4ECAD19B02846BDE8F08F620700D479
:10539000062709F1070222F0070CFCE80223E14688
:1053A00003F000485FEA080C02D00FF2702C0DE009
:1053B0005FEA045C02D50FF2682C07E05FEAC47C68
:1053C00002D00FF2602C01E0AFF2700C4FF0FF380A
:1053D00023F00043CDF850C065280CD006DC4528EA
:1053E00009D046281DD047283DD13DE0662818D079
:1053F00067287ED138E00021112F01DB112000E069
:10540000781CCDE9000106A90EA8FFF7DDFCDDE957
:105410000F010E9A03910021009207F1010A0491F5
:105420004DE04FF000400097CDE9011006A90EA80D
:10543000FFF7CAFCDDE90F0203920E9B11990022CF
:10544000DDF80CA00093049211B9791C00EB010A5D
:10545000B7EB0A0004D4C0F1FF3007F1010A049051
:10546000AAEB0700019044E0012F00DA0127002198
:10547000112F01DD112000E03846CDE9000106A919
:105480000EA8FFF7A1FCDDE90F010E9A03910021A0
:1054900004910092BA4621070CD40399514500DAD1
:1054A0008A46BAF1010F05DD009AAAF10101515CAB
:1054B000302908D0B84202DA10F1040F06DA0121CF
:1054C000CDE9011015E0AAF10101E9E7002805DCAA
:1054D000049901440491AAEB000102E0411C5145EA
:1054E00000DD8A460499401A401C01904FF00040AC
:1054F0000290200704D40198504501DBCDF80480C8
:1055000000208DF84F0002980DF14F07B0F1004FC9
:1055100025D02B200E9002984FF0020800280CDABC
:10552000404202902D200E9007E00A210298FBF7DE
:1055300087F83031029007F8011DB8F10001A8F199
:105540000108F2DC02980028EFD1791E0E9808704D
:10555000307800F0200040F0450007F8020D12A856
:10556000C01B00F107081498007800B1012000EB7F
:105570000A01019801EBE07105984144401A401E70
:105580000590E00306D45B462146179A059800F083
:105590005DF805441498007818B15A461799904759
:1055A0006D1CE00324D55B462146179A059800F050
:1055B0004DF805441CE00498002807DBDDE90301F1
:1055C000884203DD0098405C179901E0179930206C
:1055D0005A469047049805F10105401C0490019833
:1055E000401E019004D12E205A46179990476D1CF9
:1055F000BAF10001AAF1010ADDDC05E017F8010BA0
:105600005A46179990476D1CB8F10001A8F101089E
:10561000F4DC5B462146179A0598ABE62D000000A6
:105620002B000000200000002DE9F0410446002579
:105630001E461746880404D405E039462020B047AA
:105640006D1C641EF9D52846BDE8F0812DE9F041B6
:10565000044600251E469046C80301D5302700E0C9
:105660002027880404D505E041463846B0476D1C24
:10567000641EF9D52846BDE8F0810A68531C0B600A
:1056800010707047F0B5054616460022002360E012
:10569000A85C841000BF3248006810F804C01846A7
:1056A0005B1C01F800C0A85C302707EA0014501CFE
:1056B000B04212DB2A48006810F804C018465B1C90
:1056C00001F800C04FF03D0C18465B1C01F800C00B
:1056D00018465B1C01F800C03DE0501C285C44EA01
:1056E00010141F48006810F804C018465B1C01F82D
:1056F00000C0501C285C3C2707EA8004901CB04284
:105700000EDB1748006810F804C018465B1C01F84F
:1057100000C04FF03D0C18465B1C01F800C01AE0B9
:10572000901C285C44EA90140D48006810F804C0EE
:105730001F465B1C01F807C0901C285C00F03F046A
:105740000748006810F804C018465B1C01F800C048
:10575000D21CB2429CDB00BF0020C8540846F0BDFA
:105760002800002070B504460D4600202071401E20
:10577000E0622946204602F08BFD08B1032070BD8F
:1057800094F82E1294F82F0241EA00204AF655218F
:10579000884201D00220F2E794F86900010694F8EB
:1057A000680041EA004194F8670041EA002094F85B
:1057B0006610084320F07F400D49884201D1002047
:1057C000DDE794F88500010694F8840041EA004181
:1057D00094F8830041EA002094F88210084320F0F6
:1057E0007F400349884201D10020C8E70120C6E775
:1057F00046415400024600E0521C107810B1107867
:105800008842F9D1107870470246891E5069801E7F
:10581000884201D8002070479378906A01FB03000A
:10582000F9E700002DE9F04780460C46A17EE07EB6
:1058300041EA002010B10020BDE8F087207800F098
:105840003F00401E00EB800101EBC0064FF0010954
:10585000002524E01A48405D205C1949495D214437
:10586000497840EA0127B9F1000F11D0FF2E0BD281
:10587000384601F0A7FA82463146761C38F8110006
:1058800001F0A0FA824501D00020D5E7B94605E035
:105890004FF6FF70874201D00020CDE76D1C0D2D23
:1058A000D8D3207800F0400038B1B9F1000F04D00F
:1058B00038F8160008B10020BEE70120BCE7000060
:1058C00014C200082DE9F04704468946B9F1000FDB
:1058D00006D1E76817B16069B84215D8012713E00F
:1058E0004946204601F07CFD0646022E02D20120E8
:1058F000BDE8F087701C08B93046F9E76069B0422E
:1059000001D93046F4E74F463D4600BF6D1C606943
:10591000A84204D80225BD4201D90020E8E7294663
:10592000204601F05DFD064606B909E0701C08B18D
:10593000012E01D13046DBE7BD42E7D10020D7E799
:1059400000BF6FF070422946204602F0BBFC804643
:10595000B8F1000F08D1B9F1000F05D02A46494629
:10596000204602F0AFFC8046B8F1000F0BD1E56095
:105970002069401C78B12069401E2061607940F0A8
:105980000100607107E0B8F1010F02D14FF0FF3064
:1059900000E0012005462846AAE700002DE9F34F64
:1059A00083B082460498D0F800B001E00BF1010BFF
:1059B0009BF800002F28F9D09BF800005C28F5D058
:1059C000DAF81C9000252E4600BF3046761C1BF8E6
:1059D0000040202C03DB2F2C01D05C2C00D11CE0DC
:1059E000FF2D03D3062005B0BDE8F08FE4B20121FE
:1059F000204601F0C1F904460CB90620F3E7802CDB
:105A000006DA21466BA0FFF7F5FE08B10620EAE7AB
:105A100028466D1C29F81040D7E700BF0BEB0601A4
:105A200004980160202C01DA042000E000200746E1
:105A300008E0681E39F81040202C02D02E2C00D02F
:105A400002E06D1E002DF4D100BF0DB90620CAE79B
:105A5000002029F815000B222021DAF8180002F0A6
:105A60000DFC002600E0761C39F816002028FAD03C
:105A700039F816002E28F6D00EB147F0030700E0E3
:105A80006D1E25B1681E39F810002E28F8D14FF090
:105A90000008CDF808800820019000BF3046761C31
:105AA00039F8104004B955E0202C03D02E2C04D135
:105AB000AE4202D047F00307F0E7DDE9011088426B
:105AC00001D2AE4216D101980B2802D147F003074C
:105AD00040E0AE4201D047F00307AE4200D939E0C2
